:100000000C94C7010C94E4010C94E4010C94E401F9
:100010000C94E4010C94E4010C94E4010C94E401CC
:100020000C94E4010C94E4010C94E4010C94E401BC
:100030000C94E4010C94E4010C94E4010C94E401AC
:100040000C94E4010C94E4010C94E4010C94E4019C
:100050000C94E4010C94E4010C94E4010C94E4018C
:100060000C94E4010C94E40105A84CCDB2D44EB933
:100070003836A9020C50B9918688083CA6AAAA2A4B
:10008000BE000000803F00000000000000000000F3
:100090005F000000000000000700070000000014DF
:1000A0007F147F14000000242A7F2A1200000023FE
:1000B0001308646200000036495522500000000019
:1000C000050300000000001C224100000000004168
:1000D000221C0000000000082A1C2A08000000085A
:1000E000083E0808000000A06000000000000008B2
:1000F0000808080800000060600000000000002000
:10010000100804020000003E5149453E0000000076
:10011000427F400000000062514949460000002231
:10012000414949360000001814127F1000000027D2
:10013000454545390000003C4A494930000000016E
:1001400071090503000000364949493600000006E0
:100150004949291E0000000036360000000000005A
:10016000AC6C0000000000081422410000000014E4
:1001700014141414000000412214080000000002AE
:1001800001510906000000324979413E0000007E1D
:100190000909097E0000007F494949360000003EF8
:1001A000414141220000007F4141221C0000007FAC
:1001B000494949410000007F090909010000003E4A
:1001C000414151720000007F0808087F0000004193
:1001D0007F4100000000002040413F010000007FFF
:1001E000081422410000007F404040400000007F92
:1001F000020C027F0000007F0408107F0000003E18
:100200004141413E0000007F090909060000003E0F
:100210004151215E0000007F091929460000002697
:100220004949493200000001017F01010000003FFF
:100230004040403F0000001F2040201F0000003FC2
:100240004038403F000000631408146300000003BE
:100250000478040300000061514945430000007F19
:10026000414100000000000204081020000000418D
:10027000417F000000000004020102040000008031
:100280008080808000000001020400000000002047
:10029000545454780000007F48444438000000382B
:1002A00044442800000000384444487F00000038DF
:1002B00054545418000000087E0902000000001881
:1002C000A4A4A47C0000007F0804047800000000BF
:1002D0007D00000000000080847D00000000007FA1
:1002E00010284400000000417F4000000000007C16
:1002F000041804780000007C08047C00000000382A
:1003000044443800000000FC2424180000000018B9
:100310002424FC00000000007C08040000000048C9
:1003200054542400000000047F4400000000003CFE
:1003300040407C000000001C2040201C0000003CCD
:100340004030403C00000044281028440000001CBD
:10035000A0A07C000000004464544C44000000084D
:1003600036410000000000007F0000000000004156
:100370003608000000000002010102010000000236
:1003800005050200000000FFFFFFFFFF0000112431
:100390001FBECFEFD8E0DEBFCDBF11E0A0E0B1E0DF
:1003A000EAE6F2E202C005900D92A231B107D9F758
:1003B00021E0A2E1B1E001C01D92A931B207E1F74D
:1003C0000E944A0E0C9433110C9400008CE284B904
:1003D00080E58CBD81E08DBD08958EBD0DB407FE16
:1003E000FDCF8EB5089580E184B980E48CBD089579
:1003F0000DB407FEFDCF8EB50895559A5D9808950A
:10040000559A5D9A0895569A5E980895569A5E9AFE
:100410000895579A5F980895579A5F9A0895549A45
:100420005C9A0895549A5C980895CF93C82F0E94BF
:1004300003020E94FD018C2F0E94ED01CF910C94CC
:100440000002CF93C82F0E9406020E94FD018C2F4C
:100450000E94ED01CF910C940002CF93DF93EC0149
:100460000E9406020E94FD018D2F0E94ED018C2F3B
:100470000E94ED01DF91CF910C9400020F931F9326
:10048000CF93DF938C01EB018AE20E941502C80131
:100490000E942D02CE01DF91CF911F910F910C94FC
:1004A0002D020F931F93CF93DF938C01EB018BE20F
:1004B0000E941502C8010E942D02CE01DF91CF914A
:1004C0001F910F910C942D0280931601811109C088
:1004D00080EF90E0909315018093140180E491E007
:1004E0000AC0813061F480E491E09093150180931B
:1004F000140180EF90E09093180180931701089504
:10050000CF93DF93EB01BC010E943E02BE01CE01FE
:100510000E9451028CE2DF91CF910C941502CF938F
:10052000DF939B01EA0140911601442349F04130D9
:1005300071F46091140170911501681B790BC90168
:100540000E948002CE01DF91CF910C942D02DF91A9
:10055000CF9108952F923F924F925F926F927F9228
:100560008F929F92AF92BF92CF92DF92EF92FF92C3
:100570000F931F93CF93DF9300D000D000D0CDB75F
:10058000DEB76C017B015A0139012801261B370BAC
:100590003A8329838A01081B190B17FF03C01195A1
:1005A00001951109CA14DB0420F022242A94322C6C
:1005B00003C022242394312C89819A819E838D83C8
:1005C00097FF05C09195819591099E838D832D811B
:1005D0003E813195219531093C832B83E614F70444
:1005E00028F08FEF9FEF9A83898304C021E030E0E9
:1005F0003A83298348018D819E81881A990AA20134
:10060000B701C6010E948F02C401880F991F2B8178
:100610003C818217930764F0CA14DB0499F02D81A2
:100620003E81821A930AC20CD31C081719073CF3A7
:10063000E614F70439F0800E911E89819A81E80E44
:10064000F91EDDCF26960FB6F894DEBF0FBECDBFE4
:10065000DF91CF911F910F91FF90EF90DF90CF909E
:10066000BF90AF909F908F907F906F905F904F90D2
:100670003F902F900895CF92DF92EF92FF920F93C9
:100680001F93CF93DF936C018B01EA017901809175
:100690001601811118C0B601640F751FC6010E94B2
:1006A0003E02B801C8010E9451028CE20E9415026C
:1006B00000E010E00C171D0721F1C7010E942D0278
:1006C0000F5F1F4FF7CF8130E1F4CB010E943E0254
:1006D00080911401909115018C199D09BC018C1B0E
:1006E0009D0B0E9451028CE20E94150200E010E076
:1006F000C017D10731F0C7010E942D020F5F1F4FB5
:10070000F7CFDF91CF911F910F91FF90EF90DF9086
:10071000CF900895CF92DF92EF92FF920F931F93A5
:10072000CF93DF936C018B01EA017901809116016F
:10073000811118C0B601C6010E943E02B8016C0FBB
:100740007D1FC8010E9451028CE20E94150200E048
:1007500010E00C171D0721F1C7010E942D020F5F49
:100760001F4FF7CF8130E1F4640F751FC8010E945D
:100770003E0280911401909115018C199D09BC01D4
:100780000E9451028CE20E94150200E010E0C017A6
:10079000D10731F0C7010E942D020F5F1F4FF7CF25
:1007A000DF91CF911F910F91FF90EF90DF90CF904D
:1007B0000895AF92BF92CF92DF92EF92FF920F9384
:1007C0001F93CF93DF93EC017B016A0159019801DC
:1007D0000E943B03B7016A0D7B1D9801A601CE0163
:1007E0000E943B039801A501B701CE010E948A0334
:1007F0009801A501B701CE018C0D9D1DDF91CF9110
:100800001F910F91FF90EF90DF90CF90BF90AF902E
:100810000C948A03AF92BF92CF92DF92EF92FF9235
:100820000F931F93CF93DF936C015A017901E60E6A
:10083000F71EEB01CE15DF0541F09801A501BE01C1
:10084000C6010E943B032196F5CFDF91CF911F9106
:100850000F91FF90EF90DF90CF90BF90AF900895F1
:100860002F923F924F925F926F927F928F929F92C0
:10087000AF92BF92CF92DF92EF92FF920F931F93AE
:10088000CF93DF931C012B01690100271127041B63
:10089000150BC1E0D0E0C41BD50BCC0FDD1FE12C44
:1008A000F12CA6015701A40CB51CB5013101601A49
:1008B000710AC3010E948F02A601B5014801820C92
:1008C000931CC4010E948F02A6015201AE18BF08FA
:1008D000B501C4010E948F02A601B501C3010E94A7
:1008E0008F02EC16FD06B4F08FEFE81AF80AC70184
:1008F000880F991F01968C0F9D1F22273327201BDD
:10090000310BE216F30639F40C171D073CF0C0E07A
:10091000D0E001C0CE010C171D074CF40F5F1F4F34
:10092000E801CC0FDD1F2196C80FD91F01C0EC01D3
:10093000101611060CF0B5CFDF91CF911F910F91DA
:10094000FF90EF90DF90CF90BF90AF909F908F90EF
:100950007F906F905F904F903F902F9008954F92AF
:100960005F926F927F928F929F92AF92BF92CF923F
:10097000DF92EF92FF920F931F93CF93DF933C018F
:100980002B01490100271127041B150BC1E0D0E002
:10099000C41BD50BCC0FDD1FC12CD12C7601EE0C66
:1009A000FF1C9401A7015201AC18BD08B501C30199
:1009B000801B910B0E948A039401A701B501C80115
:1009C000860D971D0E948A03CC16DD06ACF08FEFD2
:1009D000C81AD80A83E0E80EF11CEC0EFD1E882729
:1009E0009927801B910BC816D90639F40C171D07DF
:1009F0003CF0C0E0D0E001C07E010C171D074CF4B4
:100A00000F5F1F4FE801CC0FDD1F2196CE0DDF1DBC
:100A100001C0E701101611060CF6DF91CF911F916E
:100A20000F91FF90EF90DF90CF90BF90AF909F908D
:100A30008F907F906F905F904F9008952F923F928C
:100A40004F925F926F927F928F929F92AF92BF92DE
:100A5000CF92DF92EF92FF920F931F93CF93DF938A
:100A600000D000D0CDB7DEB7342E252E5901380185
:100A700090EE980F903608F08FE128E0829FC00139
:100A800011246B837C83C12CD12C9C013A953A8331
:100A90002983E981FA81EC0DFD1DEA57FF4FE491AE
:100AA000E32CF22C812C912C4E2E512CC201082CBF
:100AB00002C0959587950A94E2F780FF08C08301EC
:100AC0009501A501B7018B819C810E940A043FEF2B
:100AD000831A930AEA0CFB1C88E08816910431F70C
:100AE0009FEFC91AD90A2B813C812A0D3B1D3C83FB
:100AF0002B8338E0C316D10461F60F900F900F904E
:100B00000F90DF91CF911F910F91FF90EF90DF90A9
:100B1000CF90BF90AF909F908F907F906F905F909D
:100B20004F903F902F9008956F927F928F929F9257
:100B3000AF92BF92CF92DF92EF92FF920F931F93EB
:100B4000CF93DF93EB015A016901480126E02C9D08
:100B500030012D9D700C11247C01F70181917F01E2
:100B6000882361F084019601A501BE010E941E0543
:100B7000CF3ED10590F7C60DD71DEFCFDF91CF91B6
:100B80001F910F91FF90EF90DF90CF90BF90AF90AB
:100B90009F908F907F906F9008954F925F926F9289
:100BA0007F928F929F92AF92BF92CF92DF92EF92FD
:100BB000FF920F931F93CF93DF93CDB7DEB72A97A2
:100BC0000FB6F894DEBF0FBECDBF7B015A0169019D
:100BD00048011A821982FE01339628E0DF011D9236
:100BE0002A95E9F7009731F4960180E30E941E05EB
:100BF00081E030C0512C2AE030E044244394450C7D
:100C0000E1E0F0E0EC0FFD1FE50DF11DB9010E94E0
:100C1000510E8083CB01542C009779F786E08C9D90
:100C200030018D9D700C1124552099F0FE01E50DC9
:100C3000F11D808184019601A501B701805D0E94AC
:100C40001E05BFEEEB16F10410F4E60CF71C5A94E7
:100C5000EBCF842D2A960FB6F894DEBF0FBECDBF22
:100C6000DF91CF911F910F91FF90EF90DF90CF9088
:100C7000BF90AF909F908F907F906F905F904F90BC
:100C800008952F923F924F925F926F927F928F9230
:100C90009F92AF92BF92CF92DF92EF92FF920F930B
:100CA0001F93CF93DF9300D01F92CDB7DEB74B01D8
:100CB0005C015B834A831901680120E030E0A901EF
:100CC0000E94D20E87FF20C087019601A1016A8190
:100CD0007B818DE20E941E05B7FAB094B7F8B094FC
:100CE0002A813B812F3E310588F426E02C9DC001EE
:100CF0002D9D900D11244A815B81480F591F5B8304
:100D00004A8351E0598304C0198202C081E089837B
:100D10002DEC3CEC4CE45DE3C501B4010E94660E91
:100D20002B013C010E94550F4B015C01870196018C
:100D3000A1016A817B81C4010E94CD059981980F30
:100D400099838C9D90018D9D300D1124C90153E034
:100D5000880F991F5A95E1F74A815B81840F951F8F
:100D60008F3E910538F4220F331FAC01421B530B09
:100D70005B834A8387019601A1016A817B818EE2B0
:100D80000E941E058A819B818F3E910560F426E0BA
:100D90002C9DC0012D9D900D11242A813B81280F8F
:100DA000391F3B832A83B40180E090E00E94840FC6
:100DB0009B01AC01C301B2010E94650E20E030E04E
:100DC00040E251E40E9475100E94550FDC01CB01F6
:100DD00087019601A1016A817B810E94CD058981ED
:100DE0008E5F0F900F900F90DF91CF911F910F9119
:100DF000FF90EF90DF90CF90BF90AF909F908F903B
:100E00007F906F905F904F903F902F9008952F921A
:100E10003F924F925F926F927F928F929F92AF928A
:100E2000BF92CF92DF92EF92FF920F931F93CF93D7
:100E3000DF93CDB7DEB72A970FB6F894DEBF0FBEAB
:100E4000CDBF6C01362E272E5C834B833A872987D2
:100E50001E830D8386E0829FA001839F500D112485
:100E60005A834983412C512C8B819C814816590609
:100E700009F444C0A12CB12C3601F501EA57FC4F0E
:100E8000E491E32CF22C812C912C8E2F90E098870A
:100E90008F838F819885082C02C0959587950A9439
:100EA000E2F780FF09C00D811E8129853A85A901DD
:100EB000B701C3010E940A049FEF891A990A298584
:100EC0003A85E20EF31E38E08316910411F74FEFD6
:100ED000A41AB40A89859A85680E791E98E0A91625
:100EE000B10459F62FEEC216D10420F449815A817B
:100EF000C40ED51E5FEF451A550AB6CF2A960FB617
:100F0000F894DEBF0FBECDBFDF91CF911F910F913F
:100F1000FF90EF90DF90CF90BF90AF909F908F9019
:100F20007F906F905F904F903F902F9008950F9318
:100F30001F939A01EAE0E29FA001E39F500D112464
:100F400000EE1FEF9A010E940A041F910F9108956D
:100F50000F931F9300911201109113014AE0469FD5
:100F60009001479F300D11244091140150911501BB
:100F7000861B970BBC0180E090E00E940A041F9141
:100F80000F9108958F929F92AF92BF92CF92DF926E
:100F9000EF92FF920F931F93CF93DF936C015B014E
:100FA0004A01A901E8018AE0809F9001819F300DEC
:100FB00011242150310966E0649FC001659F900DA6
:100FC0001124809FA001819F500D909F500D1124EE
:100FD000400F511FB501601B710B00E018EFC601F7
:100FE0000E94D90387019E01A401B501C6010E9498
:100FF0000707DF91CF911F910F91FF90EF90DF9046
:10100000CF90BF90AF909F908F9008952F923F9276
:101010004F925F926F927F928F929F92AF92BF9208
:10102000CF92DF92EF92FF920F931F93CF93DF93B4
:1010300000D000D000D0CDB7DEB74C011B015A83E1
:10104000498328013901FE82ED82DC82CB82650171
:101050000B811C8197010E949405F40101900020EE
:10106000E9F73197E819F90926E04D815E81249F5F
:10107000C001259F900D11248E9F40018F9F900CE1
:101080009E9F900C1124C301B2010E94550FEB806A
:10109000FC800D811E812AE030E0AB0169817A81FC
:1010A000C101880D991D0E94C2074D815E8186E0B5
:1010B000440F551F8A95E1F7240E351EA101480DF6
:1010C000591DEB80FC800D811E8129813A81C3016D
:1010D000B2010E94410626960FB6F894DEBF0FBEFD
:1010E000CDBFDF91CF911F910F91FF90EF90DF90D7
:1010F000CF90BF90AF909F908F907F906F905F90B8
:101100004F903F902F9008950F931F9320911701B8
:101110003091180140911401509115018C0160E04B
:1011200070E080E090E00E940A041F910F91089502
:101130000E94E6010E9400020E9406020E94120222
:101140008FE19EE40197F1F700C000000E940F02BA
:1011500080E00E9464028BEC0E94150289E30E94E9
:1011600021028CE20E94210280E00E94210284E39D
:101170000E94210282E00E9421028FEC0E9415024F
:1011800080E00E94210281EC0E94210280E30E9403
:10119000210288EE0E94150285E80E94210280E06B
:1011A0000E94210288E70E9421028AEE0E94150215
:1011B00080E00E94210280E00E9421028DEE0E94C8
:1011C000150284E60E94210283E00E94210282E14E
:1011D0000E94210281E80E94210287EF0E941502ED
:1011E00080E20E94210280EC0E94150283E20E94AC
:1011F000210281EC0E94150280E10E94210285EC0F
:101200000E9415028EE30E94210288E20E942102C0
:1012100087EC0E94150286E80E94210286E30E9464
:10122000150288E40E9421028AE30E94150285E5E6
:101230000E94210281EB0E94150280E00E9421029F
:1012400088E10E94210286EB0E94150288E00E943C
:10125000210282E80E94210287E20E94210282EF9D
:101260000E94150280E00E94210286E20E9415027F
:1012700081E00E94210280EE0E9415028FE00E9410
:10128000210281E30E9421028BE20E9421028CE074
:101290000E9421028EE00E94210288E00E94210229
:1012A0008EE40E94210281EF0E94210287E30E94C6
:1012B000210287E00E94210280E10E94210283E056
:1012C0000E9421028EE00E94210289E00E942102F8
:1012D00080E00E94210281EE0E94150280E00E94BF
:1012E00021028EE00E94210284E10E94210283E01B
:1012F0000E94210281E10E94210287E00E942102D6
:1013000081E30E94210281EC0E94210288E40E9474
:10131000210288E00E9421028FE00E9421028CE0DD
:101320000E94210281E30E94210286E30E942102A1
:101330008FE00E94210281E10E9415029FEF2DEEB5
:1013400082E0915020408040E1F700C0000089E237
:101350000E9415028CE20E94150280911201909168
:1013600013010C9484082F923F924F925F926F92D8
:101370007F928F929F92AF92BF92CF92DF92EF9225
:10138000FF920F931F93CF93DF93CDB7DEB7AC9748
:101390000FB6F894DEBF0FBECDBF4B015A013A8F96
:1013A000298F1701DC8ECB8EFA82E982F7FE05C009
:1013B00097012F5F3F4F3A83298349815A81559581
:1013C00047955195419551095A8B498BE98CFA8C77
:1013D0005AE5E51AF108D801AA55B109BE87AD87CB
:1013E000EA16FB0609F4E9C01A8219829C01990FDA
:1013F000440B550B2D8F3E8F4F8F58A3C701FF0C09
:10140000AA0BBB0B89A39AA3ABA3BCA3A989BA89D6
:10141000AA0DBB1DBEA3ADA39401990C440B550BA3
:101420002FA338A749A75AA729813A812215330546
:101430000CF05EC16D8D7E8D8F8D98A10E94860F00
:10144000698B7A8B8B8B9C8B69A17AA18BA19CA1D8
:101450000E94860F23EC35EF48E450E40E9475109B
:1014600020E030E044E353E40E94DC0E4B015C01D9
:101470000E94D70E2B013C016DA17EA149815A81AA
:10148000640F751F072E000C880B990B0E94860FA6
:101490006B017C019B01AC01C301B2010E9475107C
:1014A00029893A894B895C890E94660E0E944E0FF9
:1014B0007E836D836FA178A589A59AA50E94860F6A
:1014C0006D8B7E8B8F8B988FC501B4010E94E210CB
:1014D0009B01AC01C701B6010E9475102D893E89A0
:1014E0004F89588D0E94660E0E944E0F7A87698739
:1014F000898D9A8D895591099CA78BA74BA55CA5D1
:101500008D859E85841795070CF451C0ABA5BCA5AD
:10151000BD01BB0F880B990B0E94860F23EC35EFA2
:1015200048E450E40E94751020E030E044E353E4C6
:101530000E94DC0E2B013C010E94D70E9B01AC01E6
:10154000C701B6010E94751029893A894B895C89C7
:101550000E94660E0E944E0F4B015C01C301B20156
:101560000E94E2109B01AC01C701B6010E947510F8
:101570002D893E894F89588D0E94660E0E944E0F1C
:101580002B013C010B8D1C8D9B01A40169857A8583
:101590008D819E810E94AA022BA53CA52F5F3F4F03
:1015A0003CA72BA75A8649869E828D82A7CFA98108
:1015B000BA811196BA83A98337CFBC01990F880BE2
:1015C000990B0E94860F69837A838B839C83B70172
:1015D000FF0C880B990B0E94860F23EC35EF48E433
:1015E00050E40E94751020E030E044E353E40E9490
:1015F000DC0E2B013C010E94D70E6B017C01698936
:101600007A896A0D7B1D072E000C880B990B0E94AE
:10161000860F6D837E838F839887B401990C880B26
:10162000990B0E94860F69877A878B879C87C301F5
:10163000B2010E94E2102B013C01A50189899A891F
:10164000481B590BBA01550F880B990B0E94860F46
:101650004B015C019B01AC01C301B2010E947510FA
:1016600029853A854B855C850E94660E0E944E0F47
:101670006D877E878F87988BA5019401C701B6017E
:101680000E94751029813A814B815C810E94660E0F
:101690000E944E0F4B015C01A30192016D817E817E
:1016A0008F8198850E94751029853A854B855C85C8
:1016B0000E94660E0E944E0F2B013C012D813E813F
:1016C0004F815885C701B6010E94751029813A8162
:1016D0004B815C810E94660E0E944E0FDC01CB01A3
:1016E0000B8D1C8D2D853E85A401B2010E94AA029E
:1016F000AC960FB6F894DEBF0FBECDBFDF91CF9191
:101700001F910F91FF90EF90DF90CF90BF90AF901F
:101710009F908F907F906F905F904F903F902F9011
:101720000895AF92BF92CF92DF92EF92FF920F9304
:101730001F93CF93DF937C01EB016A0189014091F4
:10174000140150911501FC0101900020E9F7319737
:10175000E81BF90B5A01B694A79486E0869F900186
:10176000879F300D11242E9FC0012F9F900D3E9F0B
:10177000900D112496958795A81AB90A8CE0869F3A
:101780009001879F300D112460E070E080E090E0D0
:101790000E940A04BE0180E090E00E94840F20E0D5
:1017A00030E040E05FE30E94751020E030E040EC64
:1017B00050E40E9475100E94550F86019E01AB01F6
:1017C000B501C7010E949405DF91CF911F910F9140
:1017D000FF90EF90DF90CF90BF90AF900895AF92C1
:1017E000BF92CF92DF92EF92FF920F931F9300EE82
:1017F00017E022E030E040E050E064EB70E080E091
:1018000091E00E94940500E018EF24E130E044E606
:1018100050E06AE070E084E190E00E940A042FE169
:1018200030E044E150E06CE370E084E190E00E943D
:10183000AF0422E030E040E550E060E070E081E697
:101840000E941E0540EE57E06AE070E08AE090E0FA
:101850000E948F0200EE1FEF22E030E043E050E0F4
:1018600068E270E084EB90E00E940707C12C88EFEB
:10187000D82E9FE1E92EF12C08E010E023E030E0C3
:1018800042E050E060EA70E08AE090E00E94C20727
:1018900002E010E02CE330E048E750E068EB7EE146
:1018A00087EF92EC0E9441060FEF1FEF22E030E03D
:1018B0004CE350E068EC70E088EC91E00E94CD05CC
:1018C0002091170130911801409114015091150198
:1018D00000EE17E060E070E080E090E00E94AA0275
:1018E000209117013091180140E050E060E070E075
:1018F00080911401909115010E94AA02A12C28EF59
:10190000B22E3FE1C32ED12C42E0E42EF12C00E0B8
:1019100010E020EF30E444E650E064E170E085E060
:1019200091E00E94060800EE17E020EF30E040EF63
:1019300050E060E070E080E090E00E94D9031F91E9
:101940000F91FF90EF90DF90CF90BF90AF900895F0
:10195000CF92DF92EF92FF920F931F9321E238E034
:101960004FEF5FEF62E070E08BE091E00E94910B3F
:101970006091170170911801769567958091140117
:101980009091150140E058EF969587950E948F023F
:1019900060911701709118017695679580911401F7
:1019A0009091150140EEC42EDD24DA9458E0E52E26
:1019B000F12C0AE510E020E030E042E350E096959B
:1019C00087950E94B309609117017091180176956F
:1019D00067958091140190911501AFE1CA2EA8EF8F
:1019E000DA2E04EB10E02AE530E042E350E0969571
:1019F00087950E94B309609117017091180176953F
:101A00006795809114019091150100EEC02EDD24A0
:101A1000DA940EE011E024EB30E042E350E09695DA
:101A200087950E94B309609117017091180176950E
:101A300067958091140190911501AFE1CA2EA8EF2E
:101A4000DA2E08E611E02EE031E042E350E0969510
:101A500087950E94B30960911701709118017695DE
:101A6000679580911401909115012FE1C22ED12C20
:101A700032E0E32EF12C20E030E04EE250E096958B
:101A800087950E94B30960911701709118017695AE
:101A90006795809114019091150120E030E047E3B3
:101AA00050E0969587950E94B30960911701709157
:101AB0001801769567958091140190911501C12CBC
:101AC000D12C20E030E04EE250E0969587950E94C0
:101AD000B30960911701709118017695679580910F
:101AE00014019091150120E030E047E350E0969515
:101AF00087950E94B309609117017091180176953E
:101B000067958091140190911501C12C18EFD12E89
:101B100008E0E02EF12C0AE510E020E030E042E39E
:101B200050E0969587950E94B309609117017091D6
:101B30001801769567958091140190911501AFE198
:101B4000CA2ED12C04EB10E02AE530E042E350E04D
:101B5000969587950E94B3096091170170911801BD
:101B6000769567958091140190911501C12C08EF2D
:101B7000D02E0EE011E024EB30E042E350E09695E9
:101B800087950E94B30960911701709118017695AD
:101B900067958091140190911501AFE1CA2ED12C67
:101BA00008E611E02EE031E042E350E0969587959B
:101BB0000E94B3096091170170911801769567959D
:101BC000809114019091150120EEC22E27E0D22EB3
:101BD00032E0E32EF12C20E030E04EE250E096952A
:101BE00087950E94B309609117017091180176954D
:101BF0006795809114019091150120E030E047E352
:101C000050E0969587950E94B3091F910F91FF9020
:101C1000EF90DF90CF90089581E00E9464020E94CF
:101C2000EF0B2FEF83ED90E3215080409040E1F7E0
:101C300000C0000080911201909113010E9484085D
:101C400080E00E9464020E94EF0B2FEF83ED90E38F
:101C5000215080409040E1F700C0000080911201C7
:101C6000909113010E94840881E00E9464020E9406
:101C7000A80C80911201909113010E94840880E0C9
:101C80000E9464020E94A80C80911201909113019D
:101C90000C9484080E9498080E940C020E940C0E6A
:101CA000FDCFAA1BBB1B51E107C0AA1FBB1FA61774
:101CB000B70710F0A61BB70B881F991F5A95A9F7F5
:101CC00080959095BC01CD0108955058BB27AA2757
:101CD0000E947D0E0C9427100E94EE0F38F00E9497
:101CE000F50F20F039F49F3F19F426F40C94EB0F14
:101CF0000EF4E095E7FB0C94E50FE92F0E944C10E1
:101D000058F3BA17620773078407950720F079F430
:101D1000A6F50C946E100EF4E0950B2EBA2FA02DA4
:101D20000B01B90190010C01CA01A0011124FF2788
:101D3000591B99F0593F50F4503E68F11A16F04083
:101D4000A22F232F342F4427585FF3CF4695379582
:101D50002795A795F0405395C9F77EF41F16BA0B47
:101D6000620B730B840BBAF09150A1F0FF0FBB1FF5
:101D7000661F771F881FC2F70EC0BA0F621F731F3E
:101D8000841F48F4879577956795B795F7959E3F9B
:101D900008F0B0CF9395880F08F09927EE0F97952C
:101DA000879508950E94C10F08F481E008950E946C
:101DB000FE0FE3950C9438100E94F00E0C9427103F
:101DC0000E94F50F58F00E94EE0F40F029F45F3F9B
:101DD00029F00C94E50F51110C946F100C94EB0F3B
:101DE0000E944C1068F39923B1F3552391F3951B8E
:101DF000550BBB27AA2762177307840738F09F5F2C
:101E00005F4F220F331F441FAA1FA9F335D00E2E98
:101E10003AF0E0E832D091505040E695001CCAF705
:101E20002BD0FE2F29D0660F771F881FBB1F2617C8
:101E300037074807AB07B0E809F0BB0B802DBF019F
:101E4000FF2793585F4F3AF09E3F510578F00C946E
:101E5000E50F0C946F105F3FE4F3983ED4F3869542
:101E600077956795B795F7959F5FC9F7880F911D8F
:101E70009695879597F90895E1E0660F771F881F7B
:101E8000BB1F621773078407BA0720F0621B730B2E
:101E9000840BBA0BEE1F88F7E09508950E94550F4A
:101EA0006894B1110C946F1008950E94541088F03A
:101EB0009F5798F0B92F9927B751B0F0E1F0660F0E
:101EC000771F881F991F1AF0BA95C9F714C0B1304F
:101ED00091F00E946E10B1E008950C946E10672F7F
:101EE000782F8827B85F39F0B93FCCF3869577957E
:101EF0006795B395D9F73EF4909580957095619567
:101F00007F4F8F4F9F4F0895E89409C097FB3EF491
:101F100090958095709561957F4F8F4F9F4F992336
:101F2000A9F0F92F96E9BB279395F69587957795B4
:101F30006795B795F111F8CFFAF4BB0F11F460FF74
:101F40001BC06F5F7F4F8F4F9F4F16C0882311F0CC
:101F500096E911C0772321F09EE8872F762F05C0E0
:101F6000662371F096E8862F70E060E02AF09A957B
:101F7000660F771F881FDAF7880F9695879597F970
:101F80000895990F0008550FAA0BE0E8FEEF16160A
:101F90001706E807F907C0F012161306E407F5075D
:101FA00098F0621B730B840B950B39F40A2661F0D1
:101FB000232B242B252B21F408950A2609F4A14074
:101FC000A6958FEF811D811D089597F99F6780E881
:101FD00070E060E008959FEF80EC089500240A947B
:101FE0001616170618060906089500240A941216F4
:101FF00013061406050608950C94EB0F0E94541066
:10200000D8F3E894E0E0BB279F57F0F02AED3FE0DB
:1020100049EC06C0EE0FBB0F661F771F881F28F024
:10202000B23A62077307840728F0B25A620B730B47
:10203000840BE3959A9572F7803830F49A95BB0F2C
:10204000661F771F881FD2F790480C94EC10092E5A
:102050000394000C11F4882352F0BB0F40F4BF2B03
:1020600011F460FF04C06F5F7F4F8F4F9F4F089543
:10207000EF93E0FF07C0A2EA2AED3FE049EC5FEBF7
:102080000E947D0E0E9427100F90039401FC90582F
:10209000E8E6F0E00C94F81057FD9058440F551FF7
:1020A00059F05F3F71F04795880F97FB991F61F0DA
:1020B0009F3F79F087950895121613061406551F51
:1020C000F2CF4695F1DF08C0161617061806991FBD
:1020D000F1CF86957105610508940895E894BB27B2
:1020E00066277727CB0197F908950E9488100C94F2
:1020F00027100E94EE0F38F00E94F50F20F0952374
:1021000011F00C94E50F0C94EB0F11240C946F104C
:102110000E944C1070F3959FC1F3950F50E0551F2E
:10212000629FF001729FBB27F00DB11D639FAA272C
:10213000F00DB11DAA1F649F6627B00DA11D661F7B
:10214000829F2227B00DA11D621F739FB00DA11D9C
:10215000621F839FA00D611D221F749F3327A00D56
:10216000611D231F849F600D211D822F762F6A2FF2
:1021700011249F5750409AF0F1F088234AF0EE0F57
:10218000FF1FBB1F661F771F881F91505040A9F784
:102190009E3F510580F00C94E50F0C946F105F3F4B
:1021A000E4F3983ED4F3869577956795B795F795C0
:1021B000E7959F5FC1F7FE2B880F911D9695879538
:1021C00097F908959F930E94FE0F0F9007FCEE5F12
:1021D0000C9438109F3F31F0915020F487957795FB
:1021E0006795B795880F911D9695879597F90895EE
:1021F0009F938F937F936F93FF93EF939B01AC011A
:102200000E947510EF91FF910E940C112F913F9148
:102210004F915F910C947510DF93CF931F930F93A1
:10222000FF92EF92DF927B018C01689406C0DA2E58
:10223000EF010E948810FE01E894A5912591359147
:1022400045915591A6F3EF010E947D0EFE01970185
:10225000A801DA9469F7DF90EF90FF900F911F913A
:0A226000CF91DF910895F894FFCFAD
:10226A0061626364004761696E20004E61736C6F3E
:02227A007600EC
:00000001FF
